{
  "address": "0xe7f1725E7734CE288F8367e1Bb143E90bb3F0512",
  "abi": [
    {
      "inputs": [
        {
          "internalType": "address",
          "name": "priceFeedAddress",
          "type": "address"
        }
      ],
      "stateMutability": "nonpayable",
      "type": "constructor"
    },
    {
      "inputs": [],
      "name": "FundMe__NotOwner",
      "type": "error"
    },
    {
      "stateMutability": "payable",
      "type": "fallback"
    },
    {
      "inputs": [],
      "name": "MINIMUM_USD",
      "outputs": [
        {
          "internalType": "uint256",
          "name": "",
          "type": "uint256"
        }
      ],
      "stateMutability": "view",
      "type": "function"
    },
    {
      "inputs": [],
      "name": "fund",
      "outputs": [],
      "stateMutability": "payable",
      "type": "function"
    },
    {
      "inputs": [
        {
          "internalType": "address",
          "name": "funder",
          "type": "address"
        }
      ],
      "name": "getAddressToAmountFunded",
      "outputs": [
        {
          "internalType": "uint256",
          "name": "",
          "type": "uint256"
        }
      ],
      "stateMutability": "view",
      "type": "function"
    },
    {
      "inputs": [
        {
          "internalType": "uint256",
          "name": "index",
          "type": "uint256"
        }
      ],
      "name": "getFunders",
      "outputs": [
        {
          "internalType": "address",
          "name": "",
          "type": "address"
        }
      ],
      "stateMutability": "view",
      "type": "function"
    },
    {
      "inputs": [],
      "name": "getOwner",
      "outputs": [
        {
          "internalType": "address",
          "name": "",
          "type": "address"
        }
      ],
      "stateMutability": "view",
      "type": "function"
    },
    {
      "inputs": [],
      "name": "getPriceFeed",
      "outputs": [
        {
          "internalType": "contract AggregatorV3Interface",
          "name": "",
          "type": "address"
        }
      ],
      "stateMutability": "view",
      "type": "function"
    },
    {
      "inputs": [],
      "name": "withdraw",
      "outputs": [],
      "stateMutability": "payable",
      "type": "function"
    },
    {
      "stateMutability": "payable",
      "type": "receive"
    }
  ],
  "transactionHash": "0x29fb56d67869bf19b11d5f3abe5ea7289ce42598aba84fce7ff419eabb5cc462",
  "args": [
    "0x5FbDB2315678afecb367f032d93F642f64180aa3"
  ],
  "numDeployments": 1,
  "solcInputHash": "359281ab803406b96172277b8bd9062e",
  "bytecode": "0x60a060405234801561001057600080fd5b506040516200101a3803806200101a83398181016040528101906100349190610115565b80600260006101000a81548173ffffffffffffffffffffffffffffffffffffffff021916908373ffffffffffffffffffffffffffffffffffffffff1602179055503373ffffffffffffffffffffffffffffffffffffffff1660808173ffffffffffffffffffffffffffffffffffffffff1660601b8152505050610142565b600080fd5b600073ffffffffffffffffffffffffffffffffffffffff82169050919050565b60006100e2826100b7565b9050919050565b6100f2816100d7565b81146100fd57600080fd5b50565b60008151905061010f816100e9565b92915050565b60006020828403121561012b5761012a6100b2565b5b600061013984828501610100565b91505092915050565b60805160601c610eb2620001686000396000818161036801526105b60152610eb26000f3fe6080604052600436106100745760003560e01c80636b69a5921161004e5780636b69a59214610111578063893d20e81461013c5780639e87a5cd14610167578063b60d42881461019257610083565b80630343fb251461008d5780633a7b6c74146100ca5780633ccfd60b1461010757610083565b366100835761008161019c565b005b61008b61019c565b005b34801561009957600080fd5b506100b460048036038101906100af91906107ea565b6102d6565b6040516100c19190610830565b60405180910390f35b3480156100d657600080fd5b506100f160048036038101906100ec9190610877565b61031f565b6040516100fe91906108b3565b60405180910390f35b61010f610366565b005b34801561011d57600080fd5b506101266105a6565b6040516101339190610830565b60405180910390f35b34801561014857600080fd5b506101516105b2565b60405161015e91906108b3565b60405180910390f35b34801561017357600080fd5b5061017c6105da565b604051610189919061092d565b60405180910390f35b61019a61019c565b005b674563918244f400006101da600260009054906101000a900473ffffffffffffffffffffffffffffffffffffffff163461060490919063ffffffff16565b101561021b576040517f08c379a0000000000000000000000000000000000000000000000000000000008152600401610212906109a5565b60405180910390fd5b34600160003373ffffffffffffffffffffffffffffffffffffffff1673ffffffffffffffffffffffffffffffffffffffff168152602001908152602001600020600082825461026a91906109f4565b925050819055506000339080600181540180825580915050600190039060005260206000200160009091909190916101000a81548173ffffffffffffffffffffffffffffffffffffffff021916908373ffffffffffffffffffffffffffffffffffffffff160217905550565b6000600160008373ffffffffffffffffffffffffffffffffffffffff1673ffffffffffffffffffffffffffffffffffffffff168152602001908152602001600020549050919050565b600080828154811061033457610333610a4a565b5b9060005260206000200160009054906101000a900473ffffffffffffffffffffffffffffffffffffffff169050919050565b7f000000000000000000000000000000000000000000000000000000000000000073ffffffffffffffffffffffffffffffffffffffff163373ffffffffffffffffffffffffffffffffffffffff16146103eb576040517f579610db00000000000000000000000000000000000000000000000000000000815260040160405180910390fd5b60005b6000805490508110156104965760008082815481106104105761040f610a4a565b5b9060005260206000200160009054906101000a900473ffffffffffffffffffffffffffffffffffffffff1690506000600160008373ffffffffffffffffffffffffffffffffffffffff1673ffffffffffffffffffffffffffffffffffffffff1681526020019081526020016000208190555050808061048e90610a79565b9150506103ee565b50600067ffffffffffffffff8111156104b2576104b1610ac2565b5b6040519080825280602002602001820160405280156104e05781602001602082028036833780820191505090505b50600090805190602001906104f69291906106e0565b5060003373ffffffffffffffffffffffffffffffffffffffff164760405161051d90610b22565b60006040518083038185875af1925050503d806000811461055a576040519150601f19603f3d011682016040523d82523d6000602084013e61055f565b606091505b50509050806105a3576040517f08c379a000000000000000000000000000000000000000000000000000000000815260040161059a90610b83565b60405180910390fd5b50565b674563918244f4000081565b60007f0000000000000000000000000000000000000000000000000000000000000000905090565b6000600260009054906101000a900473ffffffffffffffffffffffffffffffffffffffff16905090565b60008061061083610640565b90506000670de0b6b3a764000085836106299190610ba3565b6106339190610c2c565b9050809250505092915050565b6000808273ffffffffffffffffffffffffffffffffffffffff1663feaf968c6040518163ffffffff1660e01b815260040160a06040518083038186803b15801561068957600080fd5b505afa15801561069d573d6000803e3d6000fd5b505050506040513d601f19601f820116820180604052508101906106c19190610cea565b5050509150506402540be400816106d89190610d65565b915050919050565b828054828255906000526020600020908101928215610759579160200282015b828111156107585782518260006101000a81548173ffffffffffffffffffffffffffffffffffffffff021916908373ffffffffffffffffffffffffffffffffffffffff16021790555091602001919060010190610700565b5b509050610766919061076a565b5090565b5b8082111561078357600081600090555060010161076b565b5090565b600080fd5b600073ffffffffffffffffffffffffffffffffffffffff82169050919050565b60006107b78261078c565b9050919050565b6107c7816107ac565b81146107d257600080fd5b50565b6000813590506107e4816107be565b92915050565b600060208284031215610800576107ff610787565b5b600061080e848285016107d5565b91505092915050565b6000819050919050565b61082a81610817565b82525050565b60006020820190506108456000830184610821565b92915050565b61085481610817565b811461085f57600080fd5b50565b6000813590506108718161084b565b92915050565b60006020828403121561088d5761088c610787565b5b600061089b84828501610862565b91505092915050565b6108ad816107ac565b82525050565b60006020820190506108c860008301846108a4565b92915050565b6000819050919050565b60006108f36108ee6108e98461078c565b6108ce565b61078c565b9050919050565b6000610905826108d8565b9050919050565b6000610917826108fa565b9050919050565b6109278161090c565b82525050565b6000602082019050610942600083018461091e565b92915050565b600082825260208201905092915050565b7f4c657373207468616e2035550000000000000000000000000000000000000000600082015250565b600061098f600c83610948565b915061099a82610959565b602082019050919050565b600060208201905081810360008301526109be81610982565b9050919050565b7f4e487b7100000000000000000000000000000000000000000000000000000000600052601160045260246000fd5b60006109ff82610817565b9150610a0a83610817565b9250827fffffffffffffffffffffffffffffffffffffffffffffffffffffffffffffffff03821115610a3f57610a3e6109c5565b5b828201905092915050565b7f4e487b7100000000000000000000000000000000000000000000000000000000600052603260045260246000fd5b6000610a8482610817565b91507fffffffffffffffffffffffffffffffffffffffffffffffffffffffffffffffff821415610ab757610ab66109c5565b5b600182019050919050565b7f4e487b7100000000000000000000000000000000000000000000000000000000600052604160045260246000fd5b600081905092915050565b50565b6000610b0c600083610af1565b9150610b1782610afc565b600082019050919050565b6000610b2d82610aff565b9150819050919050565b7f5472616e73666572206661696c65640000000000000000000000000000000000600082015250565b6000610b6d600f83610948565b9150610b7882610b37565b602082019050919050565b60006020820190508181036000830152610b9c81610b60565b9050919050565b6000610bae82610817565b9150610bb983610817565b9250817fffffffffffffffffffffffffffffffffffffffffffffffffffffffffffffffff0483118215151615610bf257610bf16109c5565b5b828202905092915050565b7f4e487b7100000000000000000000000000000000000000000000000000000000600052601260045260246000fd5b6000610c3782610817565b9150610c4283610817565b925082610c5257610c51610bfd565b5b828204905092915050565b600069ffffffffffffffffffff82169050919050565b610c7c81610c5d565b8114610c8757600080fd5b50565b600081519050610c9981610c73565b92915050565b6000819050919050565b610cb281610c9f565b8114610cbd57600080fd5b50565b600081519050610ccf81610ca9565b92915050565b600081519050610ce48161084b565b92915050565b600080600080600060a08688031215610d0657610d05610787565b5b6000610d1488828901610c8a565b9550506020610d2588828901610cc0565b9450506040610d3688828901610cd5565b9350506060610d4788828901610cd5565b9250506080610d5888828901610c8a565b9150509295509295909350565b6000610d7082610c9f565b9150610d7b83610c9f565b9250827f7fffffffffffffffffffffffffffffffffffffffffffffffffffffffffffffff0482116000841360008413161615610dba57610db96109c5565b5b817f80000000000000000000000000000000000000000000000000000000000000000583126000841260008413161615610df757610df66109c5565b5b827f80000000000000000000000000000000000000000000000000000000000000000582126000841360008412161615610e3457610e336109c5565b5b827f7fffffffffffffffffffffffffffffffffffffffffffffffffffffffffffffff0582126000841260008412161615610e7157610e706109c5565b5b82820290509291505056fea264697066735822122004cc4f75317234986f86dbec9de0a952454b742ceb88bdc4ff9785a75cd980cb64736f6c63430008080033",
  "devdoc": {
    "kind": "dev",
    "methods": {},
    "version": 1
  },
  "userdoc": {
    "kind": "user",
    "methods": {},
    "version": 1
  },
  "storageLayout": {
    "storage": [
      {
        "astId": 65,
        "contract": "contracts/FundMe.sol:FundMe",
        "label": "s_funders",
        "offset": 0,
        "slot": "0",
        "type": "t_array(t_address)dyn_storage"
      },
      {
        "astId": 69,
        "contract": "contracts/FundMe.sol:FundMe",
        "label": "s_addressToAmountFunded",
        "offset": 0,
        "slot": "1",
        "type": "t_mapping(t_address,t_uint256)"
      },
      {
        "astId": 74,
        "contract": "contracts/FundMe.sol:FundMe",
        "label": "s_priceFeed",
        "offset": 0,
        "slot": "2",
        "type": "t_contract(AggregatorV3Interface)45"
      }
    ],
    "types": {
      "t_address": {
        "encoding": "inplace",
        "label": "address",
        "numberOfBytes": "20"
      },
      "t_array(t_address)dyn_storage": {
        "base": "t_address",
        "encoding": "dynamic_array",
        "label": "address[]",
        "numberOfBytes": "32"
      },
      "t_contract(AggregatorV3Interface)45": {
        "encoding": "inplace",
        "label": "contract AggregatorV3Interface",
        "numberOfBytes": "20"
      },
      "t_mapping(t_address,t_uint256)": {
        "encoding": "mapping",
        "key": "t_address",
        "label": "mapping(address => uint256)",
        "numberOfBytes": "32",
        "value": "t_uint256"
      },
      "t_uint256": {
        "encoding": "inplace",
        "label": "uint256",
        "numberOfBytes": "32"
      }
    }
  }
}